:020000040800F2
:100000009811002045010008130500080F0500089D
:1000100011050008DD010008FF19000800000000BC
:1000200000000000000000000000000009160008A9
:100030002B03000800000000DD0500080117000880
:100040005F0100085F0100085F0100085F01000810
:100050005F0100085F0100085F0100085F01000800
:100060005F0100085F0100085F0100085F010008F0
:100070005F0100085F0100085F0100085F010008E0
:100080005F0100085F0100085F0100085F010008D0
:100090005F0100085F0100085F0100085F010008C0
:1000A0005F0100085F0100085F0100085F010008B0
:1000B0005F0100085F0100085F0100085F010008A0
:1000C0005F0100085F0100085F0100085F01000890
:1000D0005F0100085F0100085F0100085517000874
:1000E0005F0100085F0100085F0100085F01000870
:1000F0005F0100085F0100085F0100085F01000860
:100100005F010008010900085F0100085F010008A5
:100110005F0100085F0100085F0100085F0100083F
:100120005F0100085F0100085F0100085F0100082F
:10013000DFF80CD000F040F8004800479134000888
:10014000981100200648804706480047FEE7FEE772
:10015000FEE7FEE7FEE7FEE7FEE7FEE7FEE7FEE777
:10016000051700083101000840EA01039B0703D08E
:1001700009E008C9121F08C0042AFAD203E011F8E6
:10018000013B00F8013B521EF9D2704730B50B46D7
:10019000014600202022012409E021FA02F59D42B7
:1001A00005D303FA02F5491B04FA02F52844151E8B
:1001B000A2F10102F1DC30BD064C074D06E0E0681B
:1001C00040F0010394E8070098471034AC42F6D39E
:1001D000FFF7B2FFB4EC0208D4EC0208FEE700001F
:1001E0000548416B11F0450FFBD040F2FF51816390
:1001F000406900F0080070470080014010B50B48CE
:100200000024416B11F0450FFBD0480702D50324B1
:10021000042003E0C80705D00124204600F010FBAD
:10022000204610BD40F2FF50F8E70000008001407A
:1002300070B50C46194906460025486B10F0450F6D
:10024000FBD0410702D50324042003E0C00705D0FA
:100250000124204600F0F4FA204670BD00F030FB87
:10026000B04212D140F2FF5000F0EAFA002000F054
:100270003FFB10F4604F03D0810404D5132070BD00
:10028000000C208007E0410401D5102070BD00045F
:1002900001D50F2070BD284670BD000000800140D0
:1002A000C10002D5024908607047024948607047A2
:1002B00004040240000002400029016802D041F01D
:1002C000010102E04FF6FE7211400160704700002C
:1002D00001460020CA0001D5034A00E0034A126823
:1002E0000A4200D001207047000402400000024092
:1002F00030B5036847F6F07293430C6A8A6822436C
:10030000D1E904452C4322438C692243CC69224322
:100310004C6A22438C6A22431A430260CA684260D4
:100320000A6882604968C16030BD70472DE9FC5F92
:100330000025494C00954FF4806801954027C4F88A
:100340001080C4E902750E464FF0080B1021C4E975
:1003500000B1A946204600F0FDFA1020FFF740FF4B
:1003600000284DD13D48BA464F4600890004206020
:100370003720C4E9010AC4E90398204600F0EAFAEC
:100380003720FFF72DFF00283AD1411E04F1140059
:10039000C0E9001B302181600221C0E9031701215F
:1003A000416100F065FA3320C4F808A0C4E9007088
:1003B000C4E90378204600F0CDFA3320FFF710FFA0
:1003C00004001DD1264F4FF4001AE94640F22A6876
:1003D000786B10EA080F0BD1504600F077FA00282E
:1003E000F6D000F0B1FA49F825006D1C012DEFD9C7
:1003F000082000F06BFA28B1082000F021FA042050
:10040000BDE8FC9F022000F061FA20B1022000F05C
:1004100017FA0220F4E7202000F058FA20B120203B
:1004200000F00EFA0620EBE74FF40075284600F0C6
:100430004DFA20B1284600F003FA0720E0E740F229
:10044000FF5000F0FDF9009800BA7060019800BA02
:1004500030602046D4E70000BC0800209000002057
:1004600000800140F0B5CA78002502F00F03D206E3
:1004700001D58A7813430A784FF00F0E12F0FF0F60
:100480004FF001021CD004680F8802FA05F63740CD
:10049000B74211D14FEA850C0EFA0CF724EA070790
:1004A00003FA0CF43C43CF78282F02D0482F02D017
:1004B00002E0466100E006616D1C082DE4D3046093
:1004C0000C88FF2C1ED944685FF0000606F108076F
:1004D00002FA07F50F882F40AF420FD14FEA860C82
:1004E0000EFA0CF7BC4303FA0CF73C43CF78282FE5
:1004F00000D14561CF78482F00D10561761C082EC8
:10050000E4D34460F0BD4161704701617047FEE78C
:10051000FEE7704708B54FF4C06000F041F83120A5
:100520008DF8000000208DF801008DF802000120F8
:100530008DF80300684600F001F808BD70B50F2380
:10054000C47801780122F4B1144C2468457804F48D
:10055000E064C4F5E064240AC4F10406E34084784E
:10056000B5401C402C4301F1E021230181F8003407
:10057000007800F01F018A404009800000F1E0206F
:10058000C0F8002170BD01F01F00824048098000C2
:1005900000F1E020C0F8802170BD00000CED00E00B
:1005A0000249084302490860704700000000FA054C
:1005B0000CED00E008B54FF4E060FFF7F1FF2720F5
:1005C0008DF8000000208DF8010001208DF8020058
:1005D0008DF803006846FFF7B1FF08BD70470000C3
:1005E000044A0029516901D0014300E0814351616F
:1005F0007047000000100240044A0029D16901D070
:10060000014300E08143D1617047000000100240C7
:10061000044A0029916901D0014300E081439161BE
:10062000704700000010024030B51F494A6812F0C0
:100630000C031E4A03D0042B01D0082B21D00260EA
:100640004A680F231A4C03EA1212A35C0268DA40CC
:1006500042604B68072505EA1323E35C22FA03F3A3
:1006600083604B6805EAD323E35CDA40C2604968E3
:10067000032303EA9131231F595CB2FBF1F10161BD
:1006800030BD4A684B6802F470124FF0020413F454
:10069000803F04EB924202D04B689B0301D5054B8F
:1006A00000E0024B5A43CAE70010024000127A00F1
:1006B0001800002000093D0010B5144C14A1164884
:1006C000226801F03DFA14490A22A1F5277002F0D0
:1006D000C7FA401C14D0231D3622191D0F4802F002
:1006E00087FC6168362903D00DA001F019FA0AE0F1
:1006F000094913A001F014FA2068401C206002E0B0
:1007000018A001F00DFA606810BD0000A4000020E0
:1007100025642E626D700000840B0020E808002024
:10072000777269746520696E2061206E6577206636
:10073000696C65206661696C656420256400000051
:100740004372656174652061206E65772066696C0F
:1007500065207375636365737366756C6C202573B0
:10076000000000004372656174652061206E65774A
:100770002066696C65206661696C65640000000034
:100780002DE9FC470025804600952846019500F09C
:10079000AFF8800102D50E20BDE8FC87264F6946E0
:1007A000388980B2FFF7C2FD0028F5D13720234CED
:1007B000402601994FF0060A4FF48069B8F1010F05
:1007C0001FD0C90335D53989C4F810900904C4E98C
:1007D0000010C4E90265204600F0BCF83720FFF79E
:1007E000FFFC0028D8D1C4E9005AC4F8109000BF1B
:1007F000C4E90265114800F0ADF80620FFF7F0FCEF
:10080000CAE7490315D53989C4F810900904C4E929
:100810000010C4E90265094800F09CF83720FFF792
:10082000DFFC0028B8D10220C4F81090C4E9000A07
:10083000DEE72520B0E7000090000020BC08002083
:1008400001498863704700000080014001498863C6
:1008500070470000008001400149C1F8A0007047C6
:100860000000304201490860704700008C053042AA
:1008700010B5094A0168516241689162D16A21F05C
:10088000F703D0E902142143D0E904400443214393
:100890001943D16210BD00000080014006480021CC
:1008A000016041608160C16041628162C162034A4E
:1008B0008263C1637047000000800140FF07C000F1
:1008C00001480069C0B2704700800140034A0146F8
:1008D0000020526B0A4200D0012070470080014086
:1008E0000248006800F003007047000000800140EB
:1008F00008B5024908440090006808BD1480014012
:1009000000F0C4BB044A0029D16B01D0014300E0D0
:100910008143D163704700000080014030B5094B2E
:100920005A6847F6FF618A43017D8468C5682143A0
:1009300044682C4321430468006921430143114367
:10094000596030BD008001400148D0F880007047F8
:100950000080014010B5084A01689160D168CB0A57
:10096000D0E901142143D0E903400443DB022143D1
:100970001943D16010BD00000080014004490A689D
:1009800022F003020A600A6802430A60704700000E
:10099000008001400148FFF79BBC000000200010D0
:1009A00070B505468CB00C461148FFF779FC114E26
:1009B00000213046FFF780FC0F48CDE900050020FC
:1009C000A108CDE902018021CDE904018900069149
:1009D0008900CDE907108900CDE909106946304644
:1009E000FFF786FC01213046FFF766FC0CB070BDB6
:1009F00000F00010440402408080014070B50546BC
:100A00008CB00C461248FFF74BFC124E00213046CA
:100A1000FFF752FC1048CDE9000510200290A00815
:100A2000039000208021CDE904018900069189000E
:100A3000CDE907108900CDE9091069463046FFF776
:100A400057FC01213046FFF737FC0CB070BD0000A9
:100A500000F0001044040240808001402DE9F04184
:100A60000146194800264068032814D018B101280F
:100A700001D0022826D1B1F5805F0CD04FF4006878
:100A800000250127114C41450ED10120FFF778FECA
:100A9000060003D016E02720BDE8F0812775256009
:100AA0006560C4E9025809E00020FFF769FE06000E
:100AB00008D1277525606560A560E560034825615C
:100AC000FFF72CFF3046E7E790000020A408002045
:100AD0002DE9F0438D49DFF838824D6880F84E509B
:100AE0000989A0F84C10D8F800100A0E9309037079
:100AF000C2F38303437002F0030282700A0CC270D7
:100B00000A0A02714171D8F80440210E0901C1801E
:100B1000C288C4F3074142EA1112C28001F00F01FA
:100B20000172C4F30721CA094272C1F380128272B2
:100B3000C1F34012C272C1F3001202734FF0000CF5
:100B400080F80DC042464FF001099668330EC6F397
:100B50000742C6F3072725B1012D02D0022D2BD065
:100B60003CE08907090D0161E1B2046944EA8101B1
:100B70000161016941EA93110161C3F3C201017589
:100B800003F00701417551098175C2F38201C175F6
:100B90009107490F0176027E394642EAD112027668
:100BA0000269037E521C9B1C047A9A4009FA04F3E2
:100BB0005A43C0E9112311E0A106890A01610169C4
:100BC00041EA03210161016911430161026939466A
:100BD000521CD20442644FF400728264C1F380124A
:100BE00042768906490E00F81A1FF1B2027842EAED
:100BF000D11200F8012B01F07F0100F8011BD8F899
:100C00000C20110ECB0900F8013BC1F3411300F891
:100C1000013BC1F3820300F8013B8907090F017012
:100C20000378C2F3074143EA911300F8013BC1F393
:100C30004013037080F801C001F001018170C2F31C
:100C40000721CB09C370C1F380130371C1F34013B3
:100C50004371C1F300138371C1F38103C37101F0C8
:100C600003010172C2F3460141724A4680F80A90BC
:100C7000274B103319680C0E04730C0C2402C4812A
:100C8000C589C1F307242543C58109060161596857
:100C900005690C0E45EA044404610569C1F3074483
:100CA00045EA042404610569C1F30724254305616D
:100CB000017599680C0E44750C0C240684618569D5
:100CC000C1F3072445EA044484618469C9B244EA53
:100CD00001218161D968846944EA11648461047FD7
:100CE000C1F3074344EA131404771B071B0DC383A6
:100CF000C48BC1F307231C43C483C1F3460180F8AE
:100D0000201080F821206046BDE8F083900000208C
:100D10002408002008B500200090684600F0A0FAE2
:100D200008B1FF2008BD0098C0F3432008BD10B5EE
:100D3000FFF7F0FF042803D0FF2803D0012010BDE7
:100D4000002010BD022010BD08B501213020FFF7A2
:100D50005FFC4FF4F850ADF8000003208DF802005E
:100D600018208DF8030069461E48FFF77BFB04201E
:100D7000ADF8000069461C48FFF774FB01218802AA
:100D8000FFF72EFC01210220FFF72AFCFFF786FD6A
:100D900000F0ACF8002823D100F02AF800281FD179
:100DA0001248012101750021016041608160C1602C
:100DB0000161FFF7B3FD0D485038FFF789FE0028A9
:100DC0000ED10A485038B0F84C00000400F032FA56
:100DD000002805D1BDE808404FF40060FFF73EBE93
:100DE00008BD00000010014000140140A4080020CC
:100DF0002DE9F84F01200025ADF80000FFF770FD48
:100E0000A8B3DFF8E090D9F80400042868D0364C85
:100E10004FF0C00A00260220C4F808A0C4E9006010
:100E20004FF48068C4E903682046FFF793FDFFF79D
:100E3000E5F905001DD1FFF75BFDA4F188073860D7
:100E40000420FFF755FD78600820FFF751FDB860DA
:100E50000C20FFF74DFDF860D9F804004F4650B163
:100E6000012808D0062806D0022804D013E0FFE7A6
:100E70002520BDE8F88F0320E4E80260402084E8E4
:100E800041011948083CFFF765FD69460320FFF75B
:100E9000CFF90500EDD17868042821D0BDF8000015
:100EA000B860000420600920C4E9010AC4E90368AD
:100EB0000D48FFF74FFDFFF7A1F90500D9D1FFF766
:100EC00017FD094C983C20600420FFF711FD60607D
:100ED0000820FFF70DFDA0600C20FFF709FDE06082
:100EE0002846C6E790000020BC0800202DE9F05FEE
:100EF00062484FF00009B2210175C0F80090C0F8B7
:100F00000490C0F80890C0F80C90C8464F46C0F84E
:100F10001090FFF703FD0320FFF730FD0120FFF7DE
:100F20009BFC564C4FF48065183420462760676060
:100F3000A760C4E90375FFF70DFD4FF4803A5646EC
:100F400001E0761E1CD08020FFF7C0FC0028F8D0FE
:100F5000B6B140F2FF50FFF773FC4FF4D57020603C
:100F6000211D08204026256181E8C1004348183032
:100F7000FFF7F0FC424A5046516B4FF0370B05E04B
:100F80000320BDE8F09F3E49496B401E11F0450F1C
:100F900012D008B1480712D50420FFF751FCA66013
:100FA000C4E9007B3548C4E903751830FFF7D2FC6B
:100FB0003720FFF715F90CE00028E4D1ECE74806EC
:100FC00002D54020FFF73CFC2E4801214FF080481D
:100FD0004160A660C4E9007BC4E903752748BA46AE
:100FE0001830FFF7B7FC3720FFF7FAF8070043D1B6
:100FF000A660C4E900AB2148C4E903A557461830F0
:10100000FFF7A8FC3720FFF7EBF80028B9D11E49FD
:1010100048EA01002060211D2920256181E8C100E6
:1010200016481830FFF796FC15490027486B10F05A
:10103000450FFBD0400704D503270420FFF700FC31
:101040001AE040F2FF50FFF7FBFB0020FFF750FCD7
:10105000C10F09F1010903D14FF6FF718945C7D3CB
:101060004FF6FF72914501D31B208AE710F0804FA5
:1010700002D0044802214160384682E7A4080020DB
:1010800000800140900000200000108070B50D4CE1
:10109000E1680020012907D10B49886040F24C40EB
:1010A000C8600C20FFF79CF820704FF4807528462C
:1010B000FFF7CCFB00212846FFF724FC012020612C
:1010C000207870BD90000020008001402DE9F0479D
:1010D00082462648002516460F4605700561C56004
:1010E0002349CD624068022801D106027F0A214CC3
:1010F0004FF040091020C4F80890C4E900604FF494
:101100008068C4E903582046FFF724FC1020FFF74D
:1011100067F8002828D1411E04F11400C0E9001628
:10112000902181600221C0E9031501214161FFF78F
:101130009FFB1120C4F80890C4E90070C4E903586B
:101140002046FFF707FC1120FFF74AF804000BD1F7
:1011500001210802FFF7D6FB0120FFF783FB314690
:101160005046FFF71DFC2046BDE8F08790000020A8
:1011700000800140BC0800202DE9FF5F2A480025BF
:101180001E4690460F46057005614FF0010AC0F8F3
:101190000CA02649CD624068022802D14FF40078A5
:1011A0007F0A234C4FF4806B1020C4F810B0C4E9C0
:1011B00000804FF04009C4E902952046FFF7CAFBC2
:1011C0001020FFF70DF800282AD1411E04F1140069
:1011D00006FB08F6E0E80216902102C0022180E832
:1011E000220404F11400FFF743FB1220C4F810B0EE
:1011F000C4E90070C4E902952046FFF7ABFB12205A
:10120000FEF7EEFF04000BD101210802FFF77AFB85
:101210000120FFF727FB31460098FFF7C1FB20466E
:1012200004B0BDE8F09F0000900000200080014065
:10123000BC080020094910B508600720486040201C
:1012400088600020C8604FF4806008610846FFF79E
:1012500081FBBDE810400720FEF7C2BFBC0800209C
:1012600070B505460748084C00890004A06040F2AC
:101270004D40E0600D20FEF7B3FF002801D1616909
:10128000296070BD900000200080014070B5084CBE
:10129000002500BFFFF77EFB20B9206910B9207838
:1012A0000028F7D0207808B1207870BD284670BD9E
:1012B0009000002070B50A4C002500BFFFF76AFBC4
:1012C00020B9206910B920780028F7D0207808B11B
:1012D000207870BD40F2FF50FFF7B2FA284670BD8B
:1012E000900000202DE9F04782462648002516464A
:1012F0000F4605700561C5602349CD62406802282C
:1013000001D106027F0A214C4FF480691020C4F8F5
:101310001090C4E900604FF04008C4E902852046FF
:10132000FFF718FB1020FEF75BFF002827D11820DD
:10133000C4F81090C4E90070C4E902852046FFF7A4
:1013400009FB1820FEF74CFF002818D1411E04F1BC
:101350001400C0E900169021C0E902150121C0E97E
:101360000451FFF785FA01210802FFF7CBFA314655
:101370005046FFF743FB0120FFF774FA2846BDE80B
:10138000F08700009000002000800140BC08002091
:101390002DE9FF4F81B0DFF8F4B0002400941D4622
:1013A00016460F468BF80040CBF810400121CBF8D1
:1013B0000C103749CC62DBF80400022801D1060288
:1013C0007F0ADFF8D080102140464FF04009C0E985
:1013D0000061C8E902944FF4806AC8F810A0FFF7D2
:1013E000B9FA1020FEF7FCFE00284CD1BBF808002B
:1013F0000104C8F800103721C8F80C40C8E90119E9
:101400004046C8F810A0FFF7A5FA3720FEF7E8FE1F
:10141000002838D140461721C0E90051C8E902949C
:10142000C8F810A0FFF796FA1720FEF7D9FE00289B
:1014300029D140461921C0E90071C8E90294C8F8D1
:1014400010A0FFF787FA1920FEF7CAFE00281AD16C
:1014500008F11401401E7543C1E900059020C1E95F
:1014600002040120C1E904400846FFF701FA012106
:101470000802FFF747FA0120FFF7F4F9294601981F
:10148000FFF7BCFA204605B0BDE8F08F90000020C1
:1014900000800140BC0800204FF480510148FFF754
:1014A00034B80000000C01404FF480510148FFF7B0
:1014B0002AB80000000C01400029018802D041F048
:1014C000400101E021F040010180704770B586B015
:1014D00001210820FFF79CF801218803FFF78CF811
:1014E0000020ADF80000ADF80800ADF80C004FF496
:1014F0008271ADF80400ADF80210ADF80600ADF849
:101500000E004FF400710720174DADF80A10ADF82A
:1015100010006946284600F033F8A800ADF8140022
:1015200003208DF816001820104E8DF8170005A91D
:101530003046FEF797FFAC14ADF8144010208DF83C
:10154000170005A93046FEF78DFF21463046FEF70D
:10155000DCFF0121284600F03FF801212846FFF773
:10156000ABFF06B070BD000000380040000C014029
:10157000012080F310887047002080F310887047A6
:1015800030B502884C8802F441530A88CD88224342
:101590008C882C4322430C8922434C8922438C891A
:1015A0002243CC8922431A430280828B22F40062B8
:1015B0008283098A018230BD064801888907FCD5EB
:1015C0000449FF22091D0A800288D207FCD008883E
:1015D000C0B27047083800400029818802D041F02D
:1015E000040101E021F004018180704705490A8867
:1015F0009207FCD5034A121D10800888C007FCD052
:10160000108870470838004070470000C1EB011097
:10161000362110B501EBC001064801F078FA064BFF
:1016200078220649034801F0E3FC0348001F4068A4
:1016300010BD0000E8080020A80000200C0B0020CE
:101640000CB50021264801910091026842F48032D5
:1016500002604FF4A063026802F400320092019A23
:10166000521C0192009A12B9019A9A42F3D102686F
:10167000920333D5012100911A490A6842F0100201
:101680000A600A6822F003020A600A6842F0020255
:101690000A604168416041684160416841F480618D
:1016A0004160416821F47C114160416841F4E811D6
:1016B0004160016841F08071016001688901FCD5D9
:1016C000416821F003014160416841F0020141603D
:1016D0004168C1F381010229FAD10CBD00910CBD12
:1016E00000100240002002404FF0E0210428086969
:1016F00003D020F004000861704740F00400FAE7CE
:10170000704700000F4810B5016841F00101016009
:1017100041680D4A1140416001680C4A1140016066
:10172000016821F480210160416821F4FE014160DB
:101730004FF41F018160FFF783FF05494FF0006000
:10174000086010BD001002400000FFF8FFFFF6FE29
:1017500008ED00E070B5234D40F22551284600F019
:10176000AEF8214C18B1284600F041F920712078DC
:101770000025012814D160781C49227977280A5461
:1017800002D2401C60700BE06570E18818A000F088
:10179000C7F9E1881548FFF739FFE088401CE08071
:1017A00020790126642802D1E07801280FD0E57065
:1017B0002079742813D0732812D1207800280FD1F3
:1017C0002670E5806570BDE87040FEF775BF0B4878
:1017D00001F094F9E580A6702570E670E8E7E67000
:1017E00070BD000000480040840000200C0B002069
:1017F000726563656976722564000000E808002060
:10180000C943018070470029818902D041F4005109
:1018100001E021F400518181704700001FB500F004
:10182000DBF800F027F84FF4E13000900020ADF82D
:101830000400ADF80600ADF80800ADF80C000C206F
:101840000B4CADF80A006946204600F06FF8012203
:1018500040F22551204600F051F801212046FFF7C3
:10186000D2FF40212046FFF7CBFFFEF7A3FE1FBDAE
:101870000048004038B54FF48060ADF800001820F3
:101880008DF803000320094C8DF8020069462046BC
:10189000FEF7E8FDE014ADF8000004208DF8030029
:1018A00069462046FEF7DEFD38BD0000000C014011
:1018B0000246002012880A4200D00120704730B54D
:1018C00001F01F0201240025C1F3421304FA02F2C1
:1018D000012B0FD0022B0FD0838A4FEA11210088F1
:1018E000134204FA01F400EA040001D000B101251A
:1018F000284630BD8389F0E7038AEEE710B5C1F3CF
:10190000421301F01F040121A140012B07D0022B3B
:1019100007D01430002A026805D00A4304E00C30D6
:10192000F8E71030F6E78A43026010BD30B5044690
:10193000008A85B00D464CF6FF710840E9880143E6
:101940002182A1894EF6F3100140A8882A8910430C
:101950006A890A431043A081A08A4FF6FF410840DC
:10196000A9890143A1826846FEF75EFE19488442B8
:1019700001D1039800E00298A189090400EBC0019D
:1019800001EB0010296801D5490000E08900B0FB97
:10199000F1F06422B0FBF2F109010B096FF01805B8
:1019A0006B4300EB8300A3891D044FF0320306D57F
:1019B00003EBC000B0FBF2F000F0070005E003EB22
:1019C0000010B0FBF2F000F00F000843208105B0DA
:1019D00030BD00000038014010B501210820FEF79D
:1019E00017FE0121BDE810408804FEF705BE80887F
:1019F000C0F308007047C1F3080181807047FEE71B
:101A000070B50D4C0546A068804720698047E169A4
:101A1000C5F307408847E169C5F307208847E169B6
:101A2000E8B28847A0698047054660698047E0685A
:101A30008047284670BD0000400000202DE9F0419D
:101A4000114C06461746A068884600258047206945
:101A50008047E169C6F307408847E169C6F307207C
:101A60008847E169F0B2884705E0A069804708F837
:101A700005006D1CADB2BD42F7D360698047E068D8
:101A8000BDE8F041004700004000002070B50E4C5A
:101A900005460E46A06880472069804745F004054A
:101AA000E169C5F307408847E169C5F30720884726
:101AB000E169E8B28847E169304688476069804754
:101AC000E068BDE870400047400000202DE9F0418B
:101AD000124C06461746A0688846002580472069B4
:101AE000804746F00406E169C6F307408847E1698C
:101AF000C6F307208847E169F0B2884706E000BFD7
:101B0000E16918F8050088476D1CADB2BD42F7D3F6
:101B100060698047E068BDE8F04100474000002070
:101B20000FB4054B10B503A9044A029800F02CF835
:101B300010BC5DF814FB000059320008EC000020D6
:101B40000FB4084B10B504A902AA039800F01CF8C2
:101B5000044602A9002000F0F3F8204610BC5DF80E
:101B600014FB0000411D000802E008C8121F08C154
:101B7000002AFAD170477047002001E001C1121F0E
:101B8000002AFBD1704700002DE9FF4F8BB09A4629
:101B90000F460546002606E025280BD052460D9933
:101BA00090476D1C761C28780028F5D10FB0304680
:101BB000BDE8F08F0024A0460122604900E0044304
:101BC00015F8013F203B02FA03F00842F7D12878CC
:101BD0002E2817D115F8010F44F004042A280ED03E
:101BE0006FF02F022878A0F1300109290AD808EBFC
:101BF000880102EB410100EB01086D1CF2E757F888
:101C0000048B6D1C287869283ED006DC0028CDD0D6
:101C100063280BD0642804D136E0732810D07528CF
:101C20004BD052460D999047761C85E017F8040B6F
:101C30008DF8000000208DF80100E946012003E046
:101C400057F8049B4FF0FF3061074FF0000401D4B8
:101C50000AE0641C44450DDA8442FADB19F80410EA
:101C60000029F6D106E0641C8442FCDB19F804105C
:101C70000029F8D1264404E019F8010B52460D99C9
:101C80009047641EF8D257E001CF4FF00A0B0028AE
:101C900002DA40422D2102E0210504D52B218DF8E6
:101CA0002410012103E0E10705D02021F7E70DF121
:101CB000200908910CE00021F9E701CF4FF00A0B51
:101CC000F9E75946FEF762FA01F1300209F8012DF1
:101CD0000028F6D1ADEB090000F1200B600701D41C
:101CE0004FF00108D84502DDA8EB0B0000E0002012
:101CF0008046002406E009A85246005D0D999047F1
:101D0000641C761C08988442F5DB04E030205246BF
:101D10000D999047761CB8F10001A8F10108F5DC97
:101D200005E019F8010B52460D999047761CBBF15E
:101D30000001ABF1010BF4DC6D1C34E70928010054
:101D40000A68531C0B6010707047000010B5044601
:101D50000A464078012304F1300100F04BFE08B13F
:101D6000032010BDB4F82E02A0F52A41553901D048
:101D7000022010BD94F86600B4F8671040EA012113
:101D80000848B0EB012F08D094F88210B4F88320F3
:101D900041EA0221B0EB012F01D1002010BD01204A
:101DA00010BD00000046415400E0401C02780AB11A
:101DB0008A42FAD1D0B270472DE9F0470B4601684C
:101DC00015460A78303A092A08D84C783A2C05D1B9
:101DD000891C016012B10B20BDE8F08776480468C9
:101DE0001C609CB1207820B1607800F043FEC107F0
:101DF0000ED04FF0000984F80090484684F8019016
:101E000000F0EDFDC10708D00320E5E70C20E3E773
:101E10000DB1400704D40020DEE71DB1400701D515
:101E20000A20D9E700210D462046FFF78FFF012841
:101E30000CD104F5F7700179F1B3017AD0F80900FB
:101E400041EA002529462046FFF780FF032801D0FC
:101E500090BB01E00120BFE7B4F83B00B0F5007F84
:101E600057D1B4F8460028B994F85400D4F8551066
:101E700040EA0120E06194F840108446E1700129B5
:101E800001D0022945D1484394F83D10A17099B181
:101E90004B1E19423DD1B4F841202281130738D19D
:101EA000B4F843602EB994F85030D4F8516043EA46
:101EB0000626E78F07B100E02BE03B1803EB121377
:101EC0009E4226D3F61AB6FBF1F111B3012640F675
:101ED000F678414500D302264FF6F678414500D307
:101EE00003262B44A362891CEB19A1612362032EF4
:101EF00011D072B118446062022E17D001F00100B7
:101F000001EB410100EB510000F2FF10BCEB502F40
:101F10000ED20D2060E7002AFBD194F85C00D4F8C3
:101F20005D2040EA022060628800EDE74800EBE7B0
:101F30004FF0FF30C4E903904F46032E31D1677153
:101F4000B4F86000012342196261607804F1300145
:101F500000F050FD28BBB4F82E02A0F52A415539F7
:101F60001FD194F83000D4F8311040EA0120134911
:101F7000884216D194F81402D4F8151240EA0120D0
:101F80000F4988420DD194F81C02D4F81D1240EA82
:101F90000120E06094F81802D4F8191240EA0120F8
:101FA000206105492670091F0888401C0880E080D0
:101FB000E76227712FE70000E800002052526141DC
:101FC0007272416170B50446082802D94FF0FF30A3
:101FD00070BD4FF4847000EB441005461021FFF7EC
:101FE00055FD2846FFF70CFD0028FAD14FF402708A
:101FF00000EB44101F21FFF749FD0C480121A140CF
:1020000082888A430A498280002021F81400074907
:10201000891D08554FF4427000EB44142046FFF729
:10202000EFFC0028FAD1012070BD0000280000203C
:10203000F00000208269891E921E8A4201D8002089
:102040007047826A807801FB002070472DE9F041DB
:1020500016460F460446082803D94FF0FF30BDE866
:10206000F08160014FF001080830FFF7C9FC00F073
:102070000F00012802D06FF00400F0E74FF4427027
:1020800000EB44100546FFF7BBFC132802D06FF0AD
:102090000200E4E738787978BA7801EB002102EBA6
:1020A000012100EB0120411C2CD058B36EB340F647
:1020B000084000EB441004223946FFF707FD41F2C7
:1020C0000800310A00EB4410FFF7E0FC41F2081071
:1020D000F1B200EB4410FFF7D9FC4FF4847000EB31
:1020E000441006460421FFF7D1FC3046FFF788FC78
:1020F0000028FAD1124908FA04F04988084213D09E
:102100000020ACE76FF00B00A9E76FF00A00A6E72C
:102110002046FFF775FC00070AD520460821FFF787
:10212000B5FC6FF00C009AE74FF4027000EB44141A
:102130002846FFF765FC1728EAD101208FE7000049
:10214000280000202DE9F0410F00064606D001F0DE
:1021500041F9022809D20120BDE8F081F46814B1E8
:10216000B069A04205D8012403E0B1698142F3D8E7
:102170003C462546B0696D1CA84202D80225022CB7
:102180000AD32946304601F025F938B1411CE3D085
:102190000128E1D0A542EDD10020DDE76FF07042CB
:1021A0002946304601F0B0FA30B957B12A463946CF
:1021B000304601F0A9FA20B101280BD001252846AC
:1021C000CAE7F5603069411CF9D0401E306101203A
:1021D0007071F4E74FF0FF35F1E700002DE9F84F9B
:1021E000884682460F6800E07F1C38782F28FBD095
:1021F0005C28F9D00024DAF81C602546785D6D1C57
:10220000202827D32F2825D05C2823D0FF2C42D28A
:10221000A0F181017D290BD8795D6D1CA1F14002EF
:102220003F2A02D3403A7F2A35D201EB002080B208
:10223000012100F0A5FF5FEA00092CD0B9F1800F61
:1022400004D2014671A0FFF7AFFD20BB26F8149021
:10225000641CD3E77A19C8F80020202801D204258D
:1022600017E0002515E000BF06EB440030F8020C33
:1022700020280DD02E280BD06CB1002026F8140099
:102280000B222021DAF8180001F0C1F9002706E03E
:10229000641E002CE8D10620BDE8F88F7F1C36F8BC
:1022A00017002028FAD02E28F8D01FB145F00305DA
:1022B00000E0641E2CB106EB440030F8020C2E281E
:1022C000F7D1002081464FF0080B009036F8170038
:1022D00007F101075FEA000824D0B8F1200F04D00D
:1022E000B8F12E0F04D1A74202D045F00305EDE767
:1022F0000098584501D2A7421AD1BBF10B0F0FD05D
:10230000A74201D045F003050CD84FF0080000901B
:102310004FEA896027464FF00B0B4FEA1069D5E76B
:1023200045F00305DAF818000178E52949D04AE0BC
:102330004046B8F1800F07D300F048FF002100F0BD
:102340001FFF804645F00205B8F1FF0F13D9009931
:10235000ABF10100814204D345F00305CDF800B094
:10236000B4E7DAF8182000984FEA182111540098C1
:10237000401C00901CE0B8F1000F04D0014626A0DC
:10238000FFF712FD20B14FF05F0845F003050FE0A5
:10239000A8F14100192802D849F0020908E0A8F183
:1023A0006100192804D8413049F001091FFA80F86A
:1023B000DAF81820009902F801800098401C00907B
:1023C00084E705210170BBF1080F03D14FEA896052
:1023D0004FEA1069C9F38100032803D06FEA0901AD
:1023E000890701D145F00205A90709D409F00301C5
:1023F000012901D145F01005012801D145F008055A
:10240000DAF81800C572002046E70000222A3A3C9C
:102410003E3F7C7F000000002B2C3B3D5B5D0000BD
:1024200010B50C4606281ED2DFE800F003070B109B
:102430001418204601F09CFC13E0204601F00AFC31
:102440000FE02078BDE8104001F0BEBC01F02EFC8A
:10245000207006E0204601F0C9FC02E0204601F0B1
:1024600028FC002010BD4FF0FF3010BD2DE9F041D9
:102470000C46002102464F1E08464FF498554FF473
:10248000A056102A61D2DFE802F0080B17131A1EBB
:10249000222C3643464A574E535A01F0BEFC4BE0BD
:1024A00014B1204604F10801BDE8F04101F015BC6B
:1024B000208801F09EFB3FE001F0AEFB05E02088A4
:1024C00001F048FC38E001F0B6FB208034E02088C1
:1024D000010A2846FFF7DAFA21783046FFF7D6FAE4
:1024E0002AE03046FFF78CFA06462846FFF788FABE
:1024F00006EB0020E9E7164882782270C278627005
:102500000279A2704279E27080792071617113E0E2
:1025100001F0F9FC10E0204601F00AFD0CE0204635
:1025200001F0B5FC08E02078BDE8F04101F025BDE0
:1025300001F0DDFC05E020700020BDE8F08101F035
:10254000CDFCC0B241B2491CF5D13846F5E70000D8
:102550004000002010B56FF00400FFF7C5F80948EF
:1025600009490068B0FBF1F0C1B2084801EB410233
:102570000170C2EBC1114FF6FF7202EAC101418046
:1025800010BD00000000002000127A008C00002026
:102590002DE9F84F0546002100F0E2F9002879D135
:1025A0004FF0FF0BD9462969286801F037F806007B
:1025B0000ED16C69207850B1E17AE52801F03F0135
:1025C00003D00A0705D50F2909D0FF204DE00426C6
:1025D00072E00F2903D0B9F1000F4BD04FE0E96949
:1025E00081B3420606D594F80DB020F04000EA8889
:1025F00081462A84484536D1627B5A4533D10091C1
:102600002078A04620F04000401E00EB800100270B
:10261000DFF8ACA001EBC006012400BF1AF80710D8
:1026200001EB0800008874B100F0D0FD0446FF2ED5
:1026300019D2009830F81600761C00F0C7FDA042B1
:1026400011D104E02FE0A0F57F41FF390BD17F1CB1
:102650000D2FE3D398F80000400608D53CB1009850
:1026600030F8160018B1FF20C0B281461DE0A9F174
:102670000100F9E7204601F00FFA58451CD04FF64B
:10268000FF702884A8694FF0FF09C17AC9070CD1EF
:102690000A2102E011E0491E06D314F8013B10F8AC
:1026A000012B9A1AF7D000E032B10021284600F041
:1026B00009F806003FF477AF3046BDE8F88F000018
:1026C000DC3F00082DE9F0410446C0880F46401C5D
:1026D0000604360C2DD0206958B331075ED1401C5A
:1026E0002061E168206829B18278521E12EA161F23
:1026F00004D053E00089B0421BD94FE000F06AFEDD
:10270000054601281AD9681C33D020688169A9427E
:102710003ED877B1E168FFF715FD05000CD0012D1B
:102720000CD0681C25D00021206800F077FF00BB8A
:1027300006E00420BDE8F0810720FBE70220F9E76E
:1027400020684FF400720021303000F060FF29460D
:102750002068FFF76FFC216800274FF00108C8626E
:102760000FE000BF80F804800021206800F056FFD1
:1027700008B10120DEE72068C16A491C7F1CFFB256
:10278000C16220688178B942ECD8C16AC91BC162B4
:10279000E56029462068FFF74DFC2061E68006F0E1
:1027A0000F013022206802EB4111084460610020D3
:1027B000C0E700002DE9FF5F04460C22D4E906764D
:1027C0003946684600F01AFF9DF80B00C00719D083
:1027D0000020F8720125E0612B46324669463846F2
:1027E00000F096FD2046FFF7D3FE18B96D1CADB280
:1027F000642DF1D3642D0BD004280AD19DF80B0071
:10280000F872E6619DF80B00800711D5002005E005
:10281000072004B0BDE8F09F401C80B236F81010CD
:102820000029F9D10D211930B0FBF1F086B200E09A
:1028300001260021204600F093F80028E9D1002766
:10284000B8462169206800F0E9FE05000BD16069F7
:102850000078E52808D038B1002701212046FFF78D
:1028600031FF0500EDD077E00FB9B4F806807F1C8A
:10287000BFB2B742F1D1012E55D94146204600F0F2
:102880006FF8050068D1A06901F006F9761E1FFAFD
:1028900086FB03902169206800F0C0FE05005BD133
:1028A0006169D4F81C90039848730F20C872002007
:1028B000087388760BF0FF0AC876AAF1010000EBD6
:1028C000800202EBC00500234FF6FF7E234E4A1C18
:1028D00001E0604503D039F81500F4466D1CF75C43
:1028E000C85516F80380070A08F8027000B9604658
:1028F0005B1C0D2BEDD3704502D039F8150008B9DB
:102900004AF0400A81F800A02168012008710021E6
:102910002046FFF7D7FE05001ED1ABF1010080B2C3
:102920005FEA000BB6D12169206800F077FE050050
:1029300012D1666920220021304600F068FE0B2289
:102940003046A16900F05AFEA069C07A00F0180074
:10295000307321680120087128465AE7DC3F0008DF
:1029600070B50D46C1808168044601291ED02068DB
:1029700082698A421AD921B90278032A04D1416AAC
:1029800011B18078060117E0E1600189A9420DD9F3
:10299000406A17E0206800F01DFD0146401C07D08A
:1029A000022903D320688069884203D8022070BDC1
:1029B000012070BDA81B85B2B542EBD2E160206852
:1029C000FFF738FB00EB1510206105F00F013022F6
:1029D000206802EB411108446061002070BD10B511
:1029E00018B9FEF7B1F9002800D0012010BD002071
:1029F000704700002DE9F04117461E460D46880736
:102A00004FF400721AD00024904614E038194102A5
:102A100042461748FEF75AFBFEF738FCFEF787F9E7
:102A20000028FBD1424612492846FDF79DFB641C55
:102A3000E4B205F50075B442E8D315E07902012E41
:102A4000284608D9FEF798FBFEF720FCFEF76FF941
:102A50000028FBD108E0FEF739FBFEF717FC00BFAA
:102A6000FEF765F90028FBD10020BDE8F0810000E9
:102A7000980B0020002070472DE9F04117461E46B4
:102A80000D4688074FF400721BD00024904615E0D5
:102A9000424629461848FDF767FB3819410242466D
:102AA0001548FEF71FFCFEF705FC00BFFEF73FF9D7
:102AB0000028FBD1641CE4B205F50075B442E7D3ED
:102AC00016E07902012E284609D9FEF761FCFEF7CF
:102AD000F1FB00BFFEF72BF90028FBD108E0FEF761
:102AE00001FCFEF7E7FB00BFFEF721F90028FBD150
:102AF0000020BDE8F0810000980B002010B50446CE
:102B000000F024FA002801D10021216010BD2DE938
:102B1000F0410D4604468188006801F026F85FEA1E
:102B2000000803D1A179080602D50220BDE8F08192
:102B3000E068A84202D2890700D405460027A068B1
:102B4000A760FDB1226891784E0268B1691E401EEF
:102B5000B1FBF6F1B0FBF6F3994205D3711E884341
:102B6000A0602D1A61690CE0216949B90021104665
:102B7000FFF7E8FA014601283FD0481C4ED02161FA
:102B80006161D1B926E0A0798007206805D5FFF7FB
:102B9000D9FA010004D1354611E000F01BFC0146D2
:102BA000481C3BD0012928D920688069884224D953
:102BB0006161A068AD1B3044A060B542E3D8A06855
:102BC0002844A060E80505D02068FFF733FAA0B1DB
:102BD00000EB55272089C00527D0A269BA4224D02E
:102BE000A07904F12405400610D520680123294668
:102BF0004078FFF741FF88B904E0A07940F08000F9
:102C0000A07192E7A07920F04000A0712068012314
:102C10003A4640782946FFF7EDFE28B1A07940F00A
:102C20008000A071012081E7A761D4E902018842F8
:102C300004D9E060A07940F02000A071404675E71B
:102C400008B10B207047054A0023106800B10370DB
:102C500001B10B700020116070470000E8000020F7
:102C60002DE9F74FADF5127D4FF0000B074602F04E
:102C70001F06C0F800B026F0010284A993A8FFF750
:102C80009BF804008FA88A90CDF82CD204D184A898
:102C9000939900F0ADFA0446899D0CB905B9062454
:102CA00016F01C0F7ED054B1042C03D184A8FFF77A
:102CB00081FD0446899D46F0080654B198E0E87A03
:102CC00010F0110F01D0072492E0700701D50824FD
:102CD0008EE0300774D500F0D9FBA873010AE973C0
:102CE000010C2974000E687485F80BB085F81CB0CF
:102CF00085F81DB085F81EB085F81FB0AA8A698BCB
:102D000085F81AB085F81BB062F31F4185F814B03E
:102D10005FEA010985F815B084994FF00100087148
:102D20004CD08499DDF810824C46C96A8391B9F180
:102D3000020F03D3D8F81810A14223D8022457E079
:102D40002146404600F046FB5FEA000A1ED0BAF179
:102D5000010FF3D0BAF1FF3F07D0002221464046D1
:102D600000F0D2FC040043D101E0012440E0D8F897
:102D70001000411C05D0401CC8F81000012088F844
:102D800005005446D8F81800A042D9D88499A9F172
:102D90000100C860DDE9831000F040FC04000BD0A6
:102DA00026E0FFE724BBE87AC10601D504241FE032
:102DB000B10701D5C00786D1300701D546F02006FE
:102DC0008498C06AC7E90705BE71A98A688B61F358
:102DD0001F403861287FD5F81D1040EA0120C7E95F
:102DE00002B0C7F818B0849838608498C088B8805A
:102DF0000DF5157D2046BDE8F08F2DE9F05F0F46FB
:102E0000002119600446818898461546006800F044
:102E1000ACFE002803D1A079010602D50220BDE84E
:102E2000F09FC00708D0D4E90210401A04F1240929
:102E3000854200D9054684E00720F0E7A068C10577
:102E400067D122689178491E01EA502111F0FF06EE
:102E500009D120B31046616900F0BCFA022820D3E2
:102E6000411C4ED0606161692068FFF7E3F8C0B192
:102E700000EB060B680A5FEA000A29D0206806EB1F
:102E80000A0281788A4201D9A1EB060A0AF0FF03FF
:102E900040785A463946FFF7ADFD90BB06E0206901
:102EA000DCE7A07940F08000A071B7E7A079400688
:102EB0000BD5A169A1EB0B00504506D207EB4020D2
:102EC0004FF40072494600F099FB4FEA4A262EE083
:102ED000A2695A451BD0A07940060AD52068012373
:102EE00049464078FFF7C8FD58B9A07920F0400066
:102EF000A071206801235A4640784946FFF77AFDC1
:102F000028B1A07940F08000A071012087E7C4F8C3
:102F100018B02089C0F30800C0F50076AE4200D991
:102F20002E46011932463846243100F067FBA0686E
:102F300037443044A060D8F80000AD1B3044C8F8D6
:102F40000000002D7FF47AAF002068E770B50446DA
:102F50008188006800F009FE00280ED1A1798A0658
:102F60000BD548060ED52068012304F124014078D2
:102F7000A269FFF781FD08B1012070BDA07920F0A2
:102F80004000A071E169206800F048FB0028F4D1FE
:102F9000256AE87A40F02000E872207B2877A08933
:102FA000000A6877E068000CA877E068000EE87710
:102FB000207CA876208A000AE8762069000C287513
:102FC0002069000E687500F061FAA875010AE975BC
:102FD000010C2976000E6876A07920F02000A071FF
:102FE0002168012008712068BDE8704000F061BDD3
:102FF0002DE9F05F0F46002119600446818898464C
:103000001646006800F0B1FD002803D1A079010642
:1030100002D50220BDE8F09F800701D40720F9E720
:10302000E16804F124098A198A427BD39AE0A068F6
:10303000C1057BD122689178491E01EA502111F027
:10304000FF050BD1B0B110466169FFF77BF800288E
:1030500068D0012837D0411C5ED06061A07940065D
:1030600015D52068012349464078A269FFF704FD81
:10307000F0BB08E020690028EBD100211046FFF7E3
:1030800061F82061E3E7A07920F04000A071616958
:103090002068FEF7CFFFB0B100EB050B700A5FEAC6
:1030A000000A2AD0206805EB0A0281788A4201D9F9
:1030B000A1EB050A0AF0FF0340785A463946FFF7AC
:1030C000DBFCA8B904E0A07940F08000A071A0E783
:1030D000A169A1EB0B0050450CD207EB40214FF446
:1030E0000072484600F08AFAA07920F0400000E023
:1030F00012E0A0714FEA4A252AE0A169594513D090
:10310000D4E9020188420FD2206801235A46407850
:103110004946FFF76FFC38B1A07940F08000A071FC
:10312000012077E721E001E0C4F818B02089C0F35E
:103130000800C0F50075B54200D9354620442A463E
:103140003946243000F05AFAA07940F04000A071CE
:10315000A0682F442844A060D8F800004119761BCD
:10316000C8F80010002E7FF462AFD4E90201884253
:1031700000D9E060A07940F02000A071002049E76C
:1031800070B580281BD345F2205309B10D4D00E0E6
:103190000D4D002110245A1A02EBD27201EB62028B
:1031A00035F82260864206D001D2114600E013466F
:1031B000641EF0D104E01CB105EB8200408870BDB4
:1031C000002070BD6E940108EA3F00080021064B04
:1031D00000E0491C33F81120002A04D08242F8D1C3
:1031E000024830F811007047F2E80208D2EA0208FB
:1031F00073B50446019801782F2901D05C2901D1CB
:10320000401C01900025A56001980078202805D277
:1032100000212046FFF7A4FB65617CBD01A9204683
:10322000FEF7DCFF0028F8D12046FFF7B1F9A169CD
:10323000C97A28B10428F0D14907EED405207CBD15
:103240004907FCD46069C17AC906F7D5818A408BE9
:1032500061F31F40A060E1E770B5074D0446C1B2BD
:103260002846FEF7C8FB80212846FEF721FB0028F0
:10327000F9D0204670BD0000004800402DE9F04123
:10328000194D00244FF4A076287820B1BDE8F04114
:1032900016A0FEF745BC4FF4347713E094B1124BFF
:1032A00016490833A1F254406A68FFF7A6FD28705A
:1032B00090B113A0FEF734FC641CA4B2B442EDD963
:1032C000BDE8F081084B0D4908333622A1F2544085
:1032D000FFF793FD3A4601E0288982B207490020B2
:1032E00000F0CAFAE8E70000600000204F70656E49
:1032F000206572726F72210D0A00000054050020D3
:1033000052656164206572726F72210D0A000000BF
:103310007CB516461C4605460B2200F06FF9052CBD
:1033200009D9600836F8021B00EBC430084484B2A7
:1033300030880028F5D107214FEA0D0304F00F0073
:103340003030392800D9C01D5854491E2409F5D100
:103350007E20002258544C1E06E081387D2802D879
:10336000A24206D0521C521C8A4202D2A85C2028DB
:10337000F3D1082902D2585C491C00E02020A8544F
:10338000521C082AF5D37CBD2DE9F04142F2080118
:1033900001EB401542F20811002601EB40142846CB
:1033A000FEF72EFB07462046FEF72AFB00EB072020
:1033B00007043F0C09D02846FEF722FB06462046AC
:1033C000FEF71EFB00EB062086B2BE42E7D1304678
:1033D000BDE8F0812DE9F0410D460446022902D3F3
:1033E000A069A84202D80120BDE8F0812078012818
:1033F00004D0022826D0032837D12FE0206A05EB1D
:10340000550600EB5621204600F008F968BBC6F3CC
:1034100008002044761C90F83070206A00EB56219A
:10342000204600F0FBF800BBC6F308002044E90783
:1034300090F8300047EA002001D00009D4E7C0F33B
:103440000B00D1E7206A00EB1521204600F0E6F8DA
:1034500058B9E8B204EB4000008EC5E7206A00EBE3
:10346000D511204600F0DAF810B14FF0FF30BBE77D
:1034700040F2FF1000EA8500204490F83010D0F8A8
:10348000310041EA002020F07040ADE70020704795
:1034900086B0314B0DF1040C41F288340FCB8CE82F
:1034A0000F002EA00068059000F0FEF82C492D4872
:1034B00000F0A8F92C492D4800F0B6F92C492D4808
:1034C00000F0C4F901A90120FEF7D0FF401C03D190
:1034D00029A0FEF725FBFEE769460F20FEF7C6FF91
:1034E000401C02D12BA0FEF71BFB9DF8000000281A
:1034F000F2D000F0C9F82E4D002628780128FCD122
:10350000A01C82B200232E7001211846641C00F01A
:1035100041FA4FF0000108B126A000E02AA0FEF712
:10352000FFFA542205A90020FEF790FD012804D0DF
:10353000002128A0FEF7F4FADFE701222C492D48EC
:10354000FFF78EFB2C490870FFF798FE0020FEF76E
:1035500039FD2E70D1E70000CC3F00087819FB74CC
:10356000791500087115000899140008A9140008BD
:10357000ED150008B915000857495A43484950202D
:10358000496E697469616C697A6564206661696C09
:103590002E0D0A00556E6B6E6F776E2050485920C5
:1035A0004C696E6B207374617574732E0D0A000084
:1035B0008600002025643A536F636B657420457262
:1035C000726F720D0A00000025643A4F70656E65D7
:1035D000640D0A0025643A536F636B657420436F72
:1035E0006E6E656374204572726F720D0A00000082
:1035F000840B0020000100206000002004E000BFD8
:1036000011F8013B00F8013B521EF9D27047C9B2D4
:1036100001E000F8011B521EFBD270472DE9F0417A
:10362000C56A0F460446BD422BD0217904F130080B
:10363000D9B1607801232A464146FFF71DFAE0B967
:1036400000202071D4E907100844A8420DD9E6787B
:1036500009E0E0690123054460782A464146FFF706
:103660000BFA761EF6B2012EF3D857B1607801231B
:103670003A464146FFF7BEF910B10120BDE8F0819E
:10368000E7620020FAE700001CB506490020FEF7BB
:10369000C7FE04490120FEF7C3FE69460820FEF775
:1036A000E5FE1CBD6C00002010B5FEF72BF8FEF700
:1036B000B5F8FDF70BFFFEF74DFFFDF745FBFCF7F7
:1036C00029FF07490020FFF7BBFA064900280870C8
:1036D00004D1BDE8104004A0FEF722BA10BD0000DE
:1036E0002403002060000020534463617264206959
:1036F0006E6974616C697A65207375636365737351
:1037000066756C210A0000002DE9F04717460D464A
:103710000446022902D3A069A84202D80220BDE8CB
:10372000F087217807F0FF084FF00109012908D040
:10373000022938D0032947D05FF0020084F80490B2
:10374000EDE7206A05EB550600EB56212046FFF712
:1037500065FF0028F2D1C6F3080020443030E907A5
:1037600003D0017868F31F1100E03946017084F836
:103770000490206A761C00EB56212046FFF74EFF8E
:103780000028DBD1C6F3080121443031EA0702D01A
:10379000C7F3071205E00A78C7F3032302F0F0022B
:1037A0001A430A70CAE7206A00EB15212046FFF78A
:1037B00035FF0028C2D1E9B204EB41013A0A81F891
:1037C000308081F83120B9E7206A00EBD51120461E
:1037D000FFF724FF0028B1D140F2FF1101EA850173
:1037E0000A194FF07043D2F8311003EA012139432E
:1037F00002F8301F0B0A53700B0C9370090ED17036
:103800009CE70000054A18B111B1C2E902017047F6
:10381000034890600348D0607047000040000020DB
:10382000113C0008133C0008054A18B111B1C2E967
:10383000040170470348106103485061704700005D
:1038400040000020173C0008153C0008074A10B54E
:1038500013889C05FDD518B111B1C2E9060110BD50
:10386000034890610348D06110BD00004000002073
:10387000153E0008193E00082DE9F05F15468B46FD
:103880000646082803D94FF0FF30BDE8F09F7001CD
:1038900001240830FEF7B4F800F00F00012801D031
:1038A000A01FF2E775B14FF4427000EB46100746D7
:1038B000FEF7A6F86FF0060A172806D01C2804D0D9
:1038C0005046E2E76FF00D00DFE7DFF8C480B44058
:1038D000B8F80400044213D04FF4027000EB461015
:1038E0008146FEF78DF800F01F00C10624D548463A
:1038F0001021FEF7CBF8B8F80410A143A8F8041083
:1039000041F6087000EB4610FEF77AF84FF6FF71AB
:1039100001EA8020854200D905463046FFF734FD94
:1039200081463846FEF76CF817280DD01C280BD0BE
:103930003046FEF747FBC3E700070BD53046FEF7DE
:1039400041FB6FF00C00A0E7B8F80200044203D07E
:103950004D4501D9002098E74D45DED82A46594605
:10396000304600F012F94FF4847000EB4610064622
:103970002021FEF78BF83046FEF742F80028FAD1F6
:10398000B8F8041028460C43A8F804407DE700006E
:10399000280000202DE9F0411D4617460E4604463A
:1039A000082803D94FF0FF30BDE8F081012E06D082
:1039B000022E04D0042E02D06FF00400F4E715F0BC
:1039C000060F6FF00500EFD185B1012E02D0022E57
:1039D0000CD103E015F0210FE6D007E0A90601D5D0
:1039E0002906E1D5E90601D52906DDD52046FEF7F1
:1039F000E9FA600105F0F0014FF0010831430830A9
:103A0000FEF744F8224E57B93788781C80B2A0F5EB
:103A10007F413080F03902D14FF4404030804FF484
:103A20008160390A00EB4410FEF730F84FF4A160D2
:103A3000F9B200EB4410FEF729F84FF4847000EB64
:103A4000441007460121FEF721F83846FDF7D8FF5C
:103A50000028FAD105F001007188A0400843708069
:103A6000B18808FA04F08143B1800A49002021F8A6
:103A700014000749891D08554FF4427000EB4415A6
:103A80002846FDF7BDFF0028FAD060B28CE70000A1
:103A900028000020F0000020014600200B224308EF
:103AA00003EBC01011F8013B521E1844C0B2F6D10E
:103AB00070472DE9F04104460021FFF7AFFD0500F6
:103AC00050D12078032846D16079F0B3002604F164
:103AD00030004FF4007231460746E662FFF797FD6B
:103AE000552084F82E02AA2084F82F02522084F850
:103AF000300084F83100612084F83200412184F8DC
:103B00003310722284F8142284F8152284F81612D5
:103B100084F81702206984F81802010A84F819123F
:103B2000010C84F81A12000E84F81B02E06884F875
:103B30001C02010A84F81D12010C000E84F81E12EA
:103B400084F81F026078012300E004E039466269CE
:103B5000FEF792FF6671002260781146FEF747FF7C
:103B600000B101252846BDE8F08110B520B10278EA
:103B700012B1C2888A4201D0092010BD4078FEF7F8
:103B800079FFC007F9D0032010BD2DE9F0475FEAA7
:103B900002088946064626D042F2085000EB461538
:103BA0002846FDF72DFF074642F2084000EB461479
:103BB0002046FDF725FF07EB002087B2380200EB17
:103BC0004610424649461030FDF780FF07EB0800DB
:103BD00086B2310A2046FDF759FFF1B22846BDE80A
:103BE000F047FDF753BFBDE8F087007870470170DC
:103BF000704710B5040A00F0F0014FF4A850FDF72B
:103C000045FF2146BDE810404FF4B850FDF73EBFD8
:103C1000704770477047704710B54FF4A850FDF7D4
:103C2000EFFE00F0F0044FF4B850FDF7E9FE04EBAE
:103C3000002080B210BD10B54FF4B050FDF7E0FE8B
:103C400004464FF4C050FDF7DBFE04EB002080B2C9
:103C500010BD000010B50446014606224FF4106066
:103C6000FDF7ECFE042204F10E019001FDF7E6FEE3
:103C7000042204F10A014FF4A060FDF7DFFE0422E4
:103C8000A11D4FF47060FDF7D9FE07480178A174BB
:103C90004178E17481782175C07860750248401ED2
:103CA0000078A07510BD0000390000200020FDF74D
:103CB000A7BE70B504464FF4D850FDF7A1FE2070A2
:103CC0004FF4D050FDF79CFE05464FF4C850FDF769
:103CD00097FE05EB0020608070BD2DE9F0410D4698
:103CE0000646002400F099F84FF0FF38AEB10022EC
:103CF000B05C521C204452B244B2082AF8DB102CAB
:103D000017DC002441F60877315D07EB4410FDF71E
:103D1000BDFE641C64B2082CF6DBCDB10021084660
:103D20002A5C401C114440B249B20828F8DB102933
:103D300002DD4046BDE8F081002441F60866295DB9
:103D400006EB4410FDF7A2FE641C64B2082CF6DBFF
:103D50000020EFE710B5C1B2040A4FF4B050FDF7F0
:103D600095FE2146BDE810404FF4C050FDF78EBED1
:103D700010B50446014606224FF41060FDF7A6FE7A
:103D8000042204F10E019001FDF7A0FE042204F1CB
:103D90000A014FF4A060FDF799FE0422A11D4FF423
:103DA0007060FDF793FE0748A17C0170E17C4170D3
:103DB000217D8170617DC1700249A07D491E08701E
:103DC00010BD00003900002010B5044630F03A0064
:103DD00002D04FF0FF3010BD0020FDF711FE40EA89
:103DE00004010020FDF752FE002010BD10B504466E
:103DF00001784FF4D850FDF749FE6088010A4FF46E
:103E0000C850FDF743FEA178BDE810404FF4D050F4
:103E1000FDF73CBE002070477047F0B585B04FF409
:103E20001064062269462046FDF708FE042295012B
:103E300002A92846FDF702FE4FF4A066042203A95A
:103E40003046FDF7FBFD4FF47067042204A93846A5
:103E5000FDF7F4FD80210020FDF718FE0020FDF79E
:103E6000CFFD062269462046FDF730FE042202A956
:103E70002846FDF72BFE042203A93046FDF726FE57
:103E8000042204A93846FDF721FE05B0F0BD10B5A7
:103E900004464FF43850FDF7B3FDC0F38011217094
:103EA00000F0380001220021202811D038280FD03E
:103EB000617010280ED018280CD020280AD0A170CC
:103EC000082809D0182807D0202805D0E17010BD97
:103ED0006270EEE7A270F3E7E27010BD10B54FF428
:103EE0003850FDF78DFDC00700D0012010BD10B582
:103EF00000244FF43850FDF783FD10F0300F00D050
:103F00000124204610BD10B54FF438542046FDF76B
:103F100077FD20F080012046FDF7B8FD2046FDF733
:103F20006FFD40F080012046BDE81040FDF7AEBDBA
:103F300010B502780021012A00D140214278012ADF
:103F400006D0C2788078012A05D001280BD00CE079
:103F500041F0380109E0012802D041F0080104E0F5
:103F600041F0180101E041F010014FF43850FDF725
:103F70008DFDBDE81040FFF7C6BF70B504464FF495
:103F800038563046FDF73CFD41064FF0FF351AD557
:103F900020F03800012C10D040F038013046FDF7F9
:103FA00075FDFFF7B0FF3046FDF72AFD012C07D065
:103FB00000F0380038B1002070BD40F03001EDE76E
:103FC00000F03000F6E7284670BD00000202020251
:103FD00002020202020202020202020201030507B9
:103FE000090E10121416181C1E00A400E8A1A70048
:103FF000ECA1A800A7A1B000E3A1B100C0A1B70047
:10400000A4A1D700C1A1E000A4A8E100A2A8E800F3
:10401000A8A8E900A6A8EA00BAA8EC00ACA8ED00A0
:10402000AAA8F200B0A8F300AEA8F700C2A1F90058
:10403000B4A8FA00B2A8FC00B9A80101A1A8130114
:10404000A5A81B01A7A82B01A9A84401BDA8480148
:10405000BEA84D01ADA86B01B1A8CE01A3A8D001A7
:10406000ABA8D201AFA8D401B3A8D601B5A8D80196
:10407000B6A8DA01B7A8DC01B8A85102BBA8610252
:10408000C0A8C702A6A1C902A5A1CA0240A8CB0226
:1040900041A8D90242A89103A1A69203A2A6930324
:1040A000A3A69403A4A69503A5A69603A6A6970384
:1040B000A7A69803A8A69903A9A69A03AAA69B0354
:1040C000ABA69C03ACA69D03ADA69E03AEA69F0324
:1040D000AFA6A003B0A6A103B1A6A303B2A6A403F2
:1040E000B3A6A503B4A6A603B5A6A703B6A6A803C0
:1040F000B7A6A903B8A6B103C1A6B203C2A6B3036B
:10410000C3A6B403C4A6B503C5A6B603C6A6B70323
:10411000C7A6B803C8A6B903C9A6BA03CAA6BB03F3
:10412000CBA6BC03CCA6BD03CDA6BE03CEA6BF03C3
:10413000CFA6C003D0A6C103D1A6C303D2A6C40391
:10414000D3A6C503D4A6C603D5A6C703D6A6C8035F
:10415000D7A6C903D8A60104A7A71004A1A71104D4
:10416000A2A71204A3A71304A4A71404A5A71504C7
:10417000A6A71604A8A71704A9A71804AAA7190494
:10418000ABA71A04ACA71B04ADA71C04AEA71D0463
:10419000AFA71E04B0A71F04B1A72004B2A7210433
:1041A000B3A72204B4A72304B5A72404B6A7250403
:1041B000B7A72604B8A72704B9A72804BAA72904D3
:1041C000BBA72A04BCA72B04BDA72C04BEA72D04A3
:1041D000BFA72E04C0A72F04C1A73004D1A7310464
:1041E000D2A73204D3A73304D4A73404D5A7350407
:1041F000D6A73604D8A73704D9A73804DAA73904D4
:10420000DBA73A04DCA73B04DDA73C04DEA73D04A2
:10421000DFA73E04E0A73F04E1A74004E2A7410472
:10422000E3A74204E4A74304E5A74404E6A7450442
:10423000E7A74604E8A74704E9A74804EAA7490412
:10424000EBA74A04ECA74B04EDA74C04EEA74D04E2
:10425000EFA74E04F0A74F04F1A75104D7A71020F1
:104260005CA9132043A81420AAA1152044A8162055
:10427000ACA11820AEA11920AFA11C20B0A11D2017
:10428000B1A1252045A82620ADA13020EBA13220E8
:10429000E4A13320E5A1352046A83B20F9A1AC20BC
:1042A00080000321E6A1052147A8092148A816217D
:1042B000EDA1212159A96021F1A26121F2A262217F
:1042C000F3A26321F4A26421F5A26521F6A266217E
:1042D000F7A26721F8A26821F9A26921FAA26A214E
:1042E000FBA26B21FCA27021A1A27121A2A27221CA
:1042F000A3A27321A4A27421A5A27521A6A276214E
:10430000A7A27721A8A27821A9A27921AAA2902107
:10431000FBA19121FCA19221FAA19321FDA196215B
:1043200049A897214AA898214BA899214CA808226E
:10433000CAA10F22C7A11122C6A115224DA81A2277
:10434000CCA11D22D8A11E22DEA11F224EA8202210
:10435000CFA123224FA82522CEA12722C4A1282203
:10436000C5A12922C9A12A22C8A12B22D2A12E226D
:10437000D3A13422E0A13522DFA13622C3A1372206
:10438000CBA13D22D7A14822D6A14C22D5A15222B1
:1043900050A86022D9A16122D4A16422DCA16522A7
:1043A000DDA1662251A8672252A86E22DAA16F22EF
:1043B000DBA1952292A89922D1A1A522CDA1BF224D
:1043C00053A81223D0A16024D9A26124DAA26224C6
:1043D000DBA26324DCA26424DDA26524DEA26624C1
:1043E000DFA26724E0A26824E1A26924E2A2742487
:1043F000C5A27524C6A27624C7A27724C8A27824B1
:10440000C9A27924CAA27A24CBA27B24CCA27C2480
:10441000CDA27D24CEA27E24CFA27F24D0A2802450
:10442000D1A28124D2A28224D3A28324D4A2842420
:10443000D5A28524D6A28624D7A28724D8A28824F0
:10444000B1A28924B2A28A24B3A28B24B4A28C2460
:10445000B5A28D24B6A28E24B7A28F24B8A2902430
:10446000B9A29124BAA29224BBA29324BCA2942400
:10447000BDA29524BEA29624BFA29724C0A29824D0
:10448000C1A29924C2A29A24C3A29B24C4A200253B
:10449000A4A90125A5A90225A6A90325A7A9042544
:1044A000A8A90525A9A90625AAA90725ABA9082514
:1044B000ACA90925ADA90A25AEA90B25AFA90C25E4
:1044C000B0A90D25B1A90E25B2A90F25B3A91025B4
:1044D000B4A91125B5A91225B6A91325B7A9142584
:1044E000B8A91525B9A91625BAA91725BBA9182554
:1044F000BCA91925BDA91A25BEA91B25BFA91C2524
:10450000C0A91D25C1A91E25C2A91F25C3A92025F3
:10451000C4A92125C5A92225C6A92325C7A92425C3
:10452000C8A92525C9A92625CAA92725CBA9282593
:10453000CCA92925CDA92A25CEA92B25CFA92C2563
:10454000D0A92D25D1A92E25D2A92F25D3A9302533
:10455000D4A93125D5A93225D6A93325D7A9342503
:10456000D8A93525D9A93625DAA93725DBA93825D3
:10457000DCA93925DDA93A25DEA93B25DFA93C25A3
:10458000E0A93D25E1A93E25E2A93F25E3A9402573
:10459000E4A94125E5A94225E6A94325E7A9442543
:1045A000E8A94525E9A94625EAA94725EBA9482513
:1045B000ECA94925EDA94A25EEA94B25EFA95025DF
:1045C00054A8512555A8522556A8532557A8542517
:1045D00058A8552559A856255AA857255BA85825E7
:1045E0005CA859255DA85A255EA85B255FA85C25B7
:1045F00060A85D2561A85E2562A85F2563A8602587
:1046000064A8612565A8622566A8632567A8642556
:1046100068A8652569A866256AA867256BA8682526
:104620006CA869256DA86A256EA86B256FA86C25F6
:1046300070A86D2571A86E2572A86F2573A87025C6
:1046400074A8712575A8722576A8732577A8812589
:1046500078A8822579A883257AA884257BA8852532
:104660007CA886257DA887257EA8882580A8892501
:1046700081A88A2582A88B2583A88C2584A88D25CE
:1046800085A88E2586A88F2587A8932588A8942598
:1046900089A895258AA8A025F6A1A125F5A1B2256E
:1046A000F8A1B325F7A1BC258BA8BD258CA8C625EC
:1046B000F4A1C725F3A1CB25F0A1CE25F2A1CF25EA
:1046C000F1A1E2258DA8E3258EA8E4258FA8E52594
:1046D00090A80526EFA10626EEA1092691A840265E
:1046E000E2A14226E1A10030A1A10130A2A1023045
:1046F000A3A10330A8A10530A9A1063065A9073000
:1047000096A90830B4A10930B5A10A30B6A10B3082
:10471000B7A10C30B8A10D30B9A10E30BAA10F303D
:10472000BBA11030BEA11130BFA1123093A813302D
:10473000FEA11430B2A11530B3A11630BCA11730C0
:10474000BDA11D3094A81E3095A8213040A922306B
:1047500041A9233042A9243043A9253044A9263059
:1047600045A9273046A9283047A9293048A9413012
:10477000A1A44230A2A44330A3A44430A4A4453051
:10478000A5A44630A6A44730A7A44830A8A4493021
:10479000A9A44A30AAA44B30ABA44C30ACA44D30F1
:1047A000ADA44E30AEA44F30AFA45030B0A45130C1
:1047B000B1A45230B2A45330B3A45430B4A4553091
:1047C000B5A45630B6A45730B7A45830B8A4593061
:1047D000B9A45A30BAA45B30BBA45C30BCA45D3031
:1047E000BDA45E30BEA45F30BFA46030C0A4613001
:1047F000C1A46230C2A46330C3A46430C4A46530D1
:10480000C5A46630C6A46730C7A46830C8A46930A0
:10481000C9A46A30CAA46B30CBA46C30CCA46D3070
:10482000CDA46E30CEA46F30CFA47030D0A4713040
:10483000D1A47230D2A47330D3A47430D4A4753010
:10484000D5A47630D6A47730D7A47830D8A47930E0
:10485000D9A47A30DAA47B30DBA47C30DCA47D30B0
:10486000DDA47E30DEA47F30DFA48030E0A4813080
:10487000E1A48230E2A48330E3A48430E4A4853050
:10488000E5A48630E6A48730E7A48830E8A4893020
:10489000E9A48A30EAA48B30EBA48C30ECA48D30F0
:1048A000EDA48E30EEA48F30EFA49030F0A49130C0
:1048B000F1A49230F2A49330F3A49B3061A99C3010
:1048C00062A99D3066A99E3067A9A130A1A5A2303A
:1048D000A2A5A330A3A5A430A4A5A530A5A5A63064
:1048E000A6A5A730A7A5A830A8A5A930A9A5AA3034
:1048F000AAA5AB30ABA5AC30ACA5AD30ADA5AE3004
:10490000AEA5AF30AFA5B030B0A5B130B1A5B230D3
:10491000B2A5B330B3A5B430B4A5B530B5A5B630A3
:10492000B6A5B730B7A5B830B8A5B930B9A5BA3073
:10493000BAA5BB30BBA5BC30BCA5BD30BDA5BE3043
:10494000BEA5BF30BFA5C030C0A5C130C1A5C23013
:10495000C2A5C330C3A5C430C4A5C530C5A5C630E3
:10496000C6A5C730C7A5C830C8A5C930C9A5CA30B3
:10497000CAA5CB30CBA5CC30CCA5CD30CDA5CE3083
:10498000CEA5CF30CFA5D030D0A5D130D1A5D23053
:10499000D2A5D330D3A5D430D4A5D530D5A5D63023
:1049A000D6A5D730D7A5D830D8A5D930D9A5DA30F3
:1049B000DAA5DB30DBA5DC30DCA5DD30DDA5DE30C3
:1049C000DEA5DF30DFA5E030E0A5E130E1A5E23093
:1049D000E2A5E330E3A5E430E4A5E530E5A5E63063
:1049E000E6A5E730E7A5E830E8A5E930E9A5EA3033
:1049F000EAA5EB30EBA5EC30ECA5ED30EDA5EE3003
:104A0000EEA5EF30EFA5F030F0A5F130F1A5F230D2
:104A1000F2A5F330F3A5F430F4A5F530F5A5F630A2
:104A2000F6A5FC3060A9FD3063A9FE3064A905310C
:104A3000C5A80631C6A80731C7A80831C8A80931DA
:104A4000C9A80A31CAA80B31CBA80C31CCA80D31AA
:104A5000CDA80E31CEA80F31CFA81031D0A811317A
:104A6000D1A81231D2A81331D3A81431D4A815314A
:104A7000D5A81631D6A81731D7A81831D8A819311A
:104A8000D9A81A31DAA81B31DBA81C31DCA81D31EA
:104A9000DDA81E31DEA81F31DFA82031E0A82131BA
:104AA000E1A82231E2A82331E3A82431E4A825318A
:104AB000E5A82631E6A82731E7A82831E8A829315A
:104AC000E9A82032E5A22132E6A22232E7A223326F
:104AD000E8A22432E9A22532EAA22632EBA227324A
:104AE000ECA22832EDA22932EEA231325AA9A33229
:104AF00049A98E334AA98F334BA99C334CA99D33C6
:104B00004DA99E334EA9A1334FA9C43350A9CE332A
:104B100051A9D13352A9D23353A9D53354A9004E48
:104B2000BBD2014EA1B6024E4081034EDFC6044EF9
:104B30004181054E4281064E4381074EF2CD084E1B
:104B4000C9D5094EFDC80A4ECFC90B4EC2CF0C4E77
:104B5000A2D80D4EBBB20E4EEBD30F4E4481104E79
:104B6000A4D8114EF3B3124E4581134EA8D7144E5C
:104B7000D2C7154EA7D8164EC0CA174E4681184E3A
:104B8000F0C7194EFBB11A4EB5D21B4ED4B41C4E11
:104B9000ABB61D4EBFCB1E4EA9D81F4E4781204E2F
:104BA0004881214E4981224EAAB6234E4A81244E85
:104BB000BDC1254ECFD1264E4B81274EA5C9284ECB
:104BC000ADD8294E4C812A4EF6B82B4EBED12C4E74
:104BD000DCE32D4ED0D62E4E4D812F4E4E81304EE1
:104BE000E1B7314E4F81324EAEB4334E5081344E28
:104BF000D9C1354E5181364EBCD8374E5281384ED0
:104C0000E8CD394EA4B53A4EAACE3B4EF7D63C4E2F
:104C100053813D4EF6C03E4ED9BE3F4EAFD8404EBA
:104C20005481414E5581424E5681434ECBC4444E31
:104C30005781454EC3BE464E5881474EB1D8484E67
:104C4000B4C3494EE5D24A4E59814B4EAED64C4E76
:104C5000DACE4D4EA7D54E4EF5BA4F4EA6B7504EB2
:104C6000D6C0514E5A81524EB9C6534ED2C5544E3B
:104C7000C7C7554E5B81564ED4B9574E5C81584ECE
:104C8000CBB3594ED2D25A4E5D815B4E5E815C4EA3
:104C9000BFD85D4EC5BE5E4EF2C65F4EB2D2604E0C
:104CA000B0CF614EE7CF624E5F81634E6081644E4C
:104CB0006181654E6281664EE9CA674E6381684EC6
:104CC0006481694EC0D86A4E65816B4E66816C4EB8
:104CD00067816D4E68816E4E69816F4E6A81704E3C
:104CE000F2C2714ED2C2724E6B81734EE9C8744EDD
:104CF0006C81754E6D81764E6E81774E6F81784EE8
:104D00007081794E71817A4E72817B4E73817C4EB7
:104D100074817D4E75817E4EACC77F4E7681804E0C
:104D20007781814E7881824E7981834E7A81844E5B
:104D30007B81854E7C81864ECBC1874E7D81884E9E
:104D4000E8D3894EF9D58A4E7E818B4EC2CA8C4EED
:104D5000FEB68D4EA1D88E4EDAD38F4EF7BF904E51
:104D60008081914EC6D4924EA5BB934EC1D8944E2D
:104D7000E5CE954EAEBE964E8181974E8281984E7D
:104D8000A8D8994E83819A4EC7D19B4EA9D09C4EEC
:104D900084819D4E85819E4E86819F4EBDD8A04EBA
:104DA000EFD9A14EF6CDA24EBABFA34E8781A44E35
:104DB000BBBDA54EA5BAA64EE0D2A74EFAB2A84EEC
:104DC000E0BAA94EB6C4AA4E8881AB4EEDCFAC4E28
:104DD000A9BEAD4EA4CDAE4EC1C1AF4E8981B04E7D
:104DE0008A81B14E8B81B24ED7C7B34EF1D9B44E42
:104DF0008C81B54EF4D9B64E8D81B74E8E81B84EAA
:104E00008F81B94E9081BA4ECBC8BB4EE9D8BC4E0B
:104E10009181BD4E9281BE4E9381BF4EDAD2C04E7B
:104E2000B2CAC14ECAC8C24EECD8C34EEAD8C44EAC
:104E3000C6D8C54EF6BDC64ECDC6C74EF0B3C84E99
:104E40009481C94EEBD8CA4EF1BDCB4EE9BDCC4ED4
:104E50009581CD4ED4C8CE4ED3B4CF4E9681D04E90
:104E60009781D14ED8C2D24E9881D34ED6B2D44E6D
:104E7000D0D7D54ECBCAD64EFBCBD74ECCD5D84EFD
:104E8000B6B8D94EC9CFDA4E9981DB4E9A81DC4E45
:104E90009B81DD4EDAD9DE4EF0D8DF4EAAC7E04E58
:104EA0009C81E14EEED8E24E9D81E34EFAB4E44E91
:104EB000EEC1E54ED4D2E64E9E81E74E9F81E84E8C
:104EC000EDD8E94EA081EA4EC7D2EB4EEFD8EC4EBA
:104ED000C7C3ED4EA181EE4EA281EF4EA381F04EED
:104EE000F6D1F14EA481F24ED9D6F34EF2D8F44E5B
:104EF000A581F54EF5D8F64EFEBCF74EDBBCF84E5C
:104F0000A681F94EA781FA4EA881FB4ECEC8FC4E71
:104F1000A981FD4EDDB7FE4EAA81FF4EC2B7004FFC
:104F2000AB81014FF3C6024FAC81034FAD81044FFB
:104F3000AE81054FAF81064FB081074FB181084F59
:104F4000B281094FF8D80A4FC1D20B4FB3810C4F31
:104F5000B4810D4FE9CE0E4FBFBC0F4FFCB7104FC1
:104F6000A5B7114FDDD0124FB581134FB681144F45
:104F7000B781154FB881164FB981174FDAD6184F40
:104F8000C5D3194FEFBB1A4FE1BB1B4FF1D81C4FD4
:104F9000BA811D4FBB811E4FA1C91F4FB0CE204FFC
:104FA000ABB4214FBC81224FF3D8234FBD81244F96
:104FB000CBC9254FF6D8264FD7C2274FF7D8284F51
:104FC000BE81294FBF812A4FB1CE2B4FF9D82C4F2C
:104FD000C0812D4FC1812E4FC2812F4FAEB2304FB5
:104FE000C0B9314FC381324FA3D9334FC481344F3D
:104FF000E9B0354FC581364FE6C1374FC681384FCE
:10500000ECC9394FC7813A4FC5CB3B4FC8813C4FA4
:10501000C6CB3D4FA4D93E4FC9813F4FCA81404FB7
:10502000CB81414FCC81424FCD81434FE8B5444FB6
:10503000CE81454FCF81464FABB5474FD081484FCA
:10504000D181494FD2814A4FD3814B4FD4814C4FAC
:10505000D5814D4FBBCE4E4FCDB54F4FA1D7504F01
:10506000F4D7514FD3D3524FD681534FE5CC544F41
:10507000D781554FCEBA564FD881574FA2D9584FE6
:10508000DCD9594FE0D35A4FFDD85B4FF0B75C4F96
:10509000F7D75D4FFED85E4FFAD85F4FA1D9604F6A
:1050A000E3C4614FD981624FDA81634FB6D3644F55
:1050B000F4D8654FDDD9664FDB81674FFBD8684F69
:1050C000DC81694FE5C56A4FDD816B4FDE816C4F36
:1050D000D0C06D4FDF816E4FE0816F4FF0D1704FC8
:1050E000DBB0714FE181724FE281734FD1BC744FDD
:1050F000A6D9754FE381764FA5D9774FE481784FD4
:10510000E581794FE6817A4FE7817B4FACD97C4FBF
:10511000AED97D4FE8817E4FABD97F4FB9CA804F62
:10512000E981814FEA81824FEB81834FA9D9844F76
:10513000B6D6854FEC81864FED81874FEE81884F43
:10514000DEB3894FA8D98A4FEF818B4FFDC08C4FBA
:10515000F0818D4FCCCA8E4FF1818F4FAAD9904FDD
:10516000F281914FA7D9924FF381934FF481944FDD
:10517000B0D9954FF581964FF681974FB1B6984FBC
:10518000F781994FF8819A4FF9819B4FA9B99C4FAC
:10519000FA819D4FC0D29E4FFB819F4FFC81A04F53
:1051A000C0CFA14FFD81A24FFE81A34FC2C2A44F29
:1051B0004082A54FC4BDA64FECD5A74FE0B2A84F83
:1051C000C8C7A94FEBBFAA4FADD9AB4F4182AC4F77
:1051D000AFD9AD4F4282AE4FEACEAF4FEEBAB04F2D
:1051E0004382B14F4482B24F4582B34F4682B44F9F
:1051F0004782B54FD6C7B64F4882B74F4982B84F9E
:105200004A82B94F4B82BA4F4C82BB4F4D82BC4F42
:105210004E82BD4F4F82BE4F5082BF4FE3B1C04F51
:105220005182C14F5282C24F5382C34FD9B4C44F2F
:10523000EDB6C54FB4D9C64F5482C74F5582C84F3B
:105240005682C94F5782CA4FA1BFCB4F5882CC4F0D
:105250005982CD4F5A82CE4FDED9CF4FCEC7D04FD5
:10526000FEC0D14FB8D9D24F5B82D34F5C82D44FAE
:105270005D82D54F5E82D64F5F82D74FD7CBD84F56
:10528000FDB7D94F6082DA4FB5D9DB4F6182DC4F71
:10529000B7D9DD4FA3B1DE4FE1D3DF4FB9D9E04F2E
:1052A0006282E14FC5D0E24F6382E34FB6D9E44F4B
:1052B0006482E54F6582E64FB1D9E74F6682E84FD9
:1052C000B2D9E94FA9C1EA4FB3D9EB4F6782EC4F8E
:1052D0006882ED4FF3BCEE4FDED0EF4FA9B8F04F30
:1052E0006982F14FE3BEF24F6A82F34FBDD9F44FAA
:1052F0006B82F54F6C82F64F6D82F74F6E82F84FDE
:10530000BAD9F94F6F82FA4FB3B0FB4F7082FC4F9E
:105310007182FD4F7282FE4FC2D9FF4F73820050DF
:105320007482015075820250768203507782045055
:1053300078820550798206507A8207507B82085025
:105340007C8209507D820A507E820B5080820C50F4
:10535000C4D90D50B6B10E5081820F50BFD9105034
:105360008282115083821250B9B513508482145036
:10537000F3BE1550858216508682175087821850CA
:10538000C8CC1950F2BA1A50D0D21B5088821C5087
:10539000C3D91D5089821E508A821F50E8BD2050FB
:1053A0008B822150ABB322508C8223508D822450AB
:1053B0008E822550C5D92650EBBE27508F822850AB
:1053C000C6D92950BBD92A50DFC42B5090822C500B
:1053D000BED92D50C1D92E50C0D92F5091823050F6
:1053E000928231509382325094823350958234505D
:1053F000968235509782365098823750998238502D
:105400009A8239509B823A50AED53B509C823C5098
:10541000B5D63D509D823E50E3C73F509E824050DE
:105420009F824150A0824250A1824350C8D944502B
:10543000A2824550A3824650A4824750D9BC48500E
:10544000CAD94950A5824A50A6824B50A7824C50D7
:10545000BCD94D50A8824E50CBD94F50ABC65050FE
:10546000A9825150AA825250AB825350AC82545000
:10547000AD825550C9D95650AE825750AF82585060
:10548000B0825950B1825A50F6D75B50B2825C500C
:10549000A3CD5D50B3825E50B4825F50B582605040
:1054A000B6826150B7826250B8826350B98264504C
:1054B000BA826550A1BD6650BB826750BC826850FD
:1054C000BD826950BE826A50BF826B50C0826C50F0
:1054D000CCD96D50C1826E50C2826F50C382705061
:1054E000C4827150C5827250C6827350C782745094
:1054F000C8827550C9827650BCC57750B5CD7850FA
:10550000CA827950CB827A50CC827B50CDD97C50E4
:10551000CD827D50CE827E50C7D97F50A5B38050BA
:10552000FEBF8150CF828250D0828350D18284507E
:10553000D2828550B5B88650D3828750D4828850A5
:10554000FCC08950D5828A50D6828B50D7828C502D
:10555000D8828D50F8B08E50D9828F50DA82905018
:10556000DB829150DC829250DD829350DE82945037
:10557000DF829550E0829650E1829750E282985007
:10558000E3829950E4829A50E5829B50E6829C50D7
:10559000E7829D50E8829E50E9829F50EA82A050A7
:1055A000EB82A150EC82A250ED82A350F6B4A4503D
:1055B000EE82A550CED9A650EF82A750CFD9A850E1
:1055C000A2B4A950D0D9AA50F082AB50F182AC500D
:1055D000DFB4AD50F282AE50F382AF50F482B050DF
:1055E000F582B150F682B250C1B0B350F782B450D8
:1055F000F882B550F982B650FA82B750FB82B850A3
:10560000FC82B950FD82BA50D1D9BB50B5C9BC504B
:10561000FE82BD504083BE504183BF504283C05084
:105620004383C1504483C2504583C3504683C45012
:105630004783C5504883C6504983C7504A83C850E2
:105640004B83C9504C83CA504D83CB504E83CC50B2
:105650004F83CD505083CE505183CF50F1CFD05097
:105660005283D1505383D2505483D3505583D45056
:105670005683D5505783D650D2D9D7505883D85057
:105680005983D9505A83DA50C5C1DB505B83DC5053
:105690005C83DD505D83DE505E83DF505F83E050CE
:1056A0006083E1506183E2506283E3506383E4509E
:1056B0006483E5506583E650D6D9E750AEC9E8501B
:1056C0006683E9506783EA506883EB506983EC5046
:1056D000D5D9ED50D4D9EE50D7D9EF506A83F050D8
:1056E0006B83F1506C83F2506D83F350DBCBF4503D
:1056F0006E83F550A9BDF6506F83F7507083F85054
:105700007183F9507283FA507383FB50A7C6FC5023
:105710007483FD507583FE507683FF50778300516C
:1057200078830151798302517A8303517B83045139
:105730007C8305517D830651D3D90751D8D90851AF
:105740007E83095180830A5181830B51D9D90C5131
:1057500082830D5183830E5184830F5185831051B1
:105760008683115187831251E5C8135188831451E0
:10577000898315518A8316518B8317518C83185155
:105780008D8319518E831A518F831B5190831C5125
:1057900091831D5192831E5193831F5194832051F5
:1057A00095832151DCC02251968323519783245144
:1057B00098832551998326519A8327519B83285199
:1057C0009C8329519D832A519E832B519F832C5169
:1057D000A0832D51A1832E51A2832F51A383305139
:1057E000A4833151A5833251A6833351A783345109
:1057F000A8833551A9833651AA833751AB833851D9
:10580000AC833951AD833A51AE833B51AF833C51A8
:10581000B0833D51B1833E51B2833F51F9B64051FF
:10582000A3D84151CAD44251B3834351AAD444515D
:10583000D6D04551E4B34651D7D54751B4834851EA
:10584000C8CF4951E2B94A51B5834B51CBBF4C51F6
:10585000B6834D51E2C34E51B7834F51B883505177
:10586000B9835151D2B65251BA835351BB8354516B
:10587000C3CD5551EED95651F0D95751BC8358512B
:10588000BD835951BE835A51B3B55B51BF835C513F
:10589000B5B65D51C0835E51C1835F51C283605113
:1058A000C3836151C4836251A4BE6351C5836451F3
:1058B000C6836551EBC86651C7836751C883685179
:1058C000ABC86951C9836A51CA836B51CBB06C5163
:1058D000ABB96D51F9C16E51E2D96F51CB837051A3
:1058E000BCC07151B2B97251CC837351D8B97451E3
:1058F000CBD07551F8B17651E4C67751DFBE7851FF
:10590000E4B57951C8D77A51CD837B51F8D17C5118
:10591000E6BC7D51DECA7E51CE837F51CF8380515C
:10592000BDBC8151E6D98251E7D88351D0838451DF
:10593000D1838551DAC48651D2838751D38388516C
:10594000D4B88951BDC88A51D4838B51D5838C5129
:10595000E1B28D51D9D48E51D6838F51D7839051D6
:10596000D8839151D9839251B0C39351DA83945122
:10597000DB839551E1C39651A2DA9751DFC8985164
:10598000DC839951B4D09A51DD839B51FCBE9C516C
:10599000A9C59D51DE839E51DF839F51E083A051B5
:1059A000DAB9A151E183A251A3DAA351E283A45150
:1059B000A9D4A551A4DAA651E383A751E483A85141
:1059C000E583A951E683AA51E783AB51FBD9AC51DA
:1059D000ACB6AD51E883AE51E983AF51EBB7B051EE
:1059E000F9B1B151FCD9B251E5B3B351F6BEB451DE
:1059F000EA83B551F6BFB651B1D2B751E4C0B85140
:105A0000EB83B951EC83BA51ED83BB51B3B6BC51B2
:105A1000FED9BD51FDD9BE51EE83BF51EF83C051B8
:105A2000BBBEC151F083C251F183C351F283C45153
:105A3000E0C6C551F383C651BCD7C751A1DAC851DE
:105A4000F483C951B9C1CA51F583CB51F2B5CC51D8
:105A5000E8C1CD51F683CE51F783CF51F5BCD0517B
:105A6000F883D151D5B4D251F983D351FA83D451AB
:105A7000FB83D551FC83D651FD83D751FE83D8518A
:105A80004084D9514184DA514284DB51DDC1DC517B
:105A90004384DD51FDC4DE514484DF514584E0512F
:105AA000B8BCE151B2B7E2514684E3514784E451B6
:105AB000EFB7E5514884E6514984E7514A84E851FB
:105AC0004B84E9514C84EA514D84EB51ECD9EC51B3
:105AD0004E84ED51BEC6EE514F84EF51ADBFF05133
